:100000000C9413050C9419260C9491260C943B0522
:100010000C943B050C943B050C943B050C943B0560
:100020000C943B050C943B050C943B050C943B0550
:100030000C943B050C943B050C943B050C943B0540
:100040000C947F340C943B050C943B0D0C94610D87
:100050000C943B050C943B050C943B050C943B0520
:100060000C943B050C943B05FB1AFF1A0F1B2B1B32
:100070001D1B371B431B531B6D1B991B991B084AE8
:10008000D73B3BCE016E84BCBFFDC12F3D6C7431AC
:100090009ABD56833DDA3D00C77F11BED9E4BB4C03
:1000A0003E916BAAAABE000000803F05A84CCDB2CD
:1000B000D44EB93836A9020C50B9918688083CA6AE
:1000C000AAAA2ABE000000803F00666C206D6F6403
:1000D00065206368616E67656400666C206D6F649F
:1000E00065207761726E696E670053637265656E35
:1000F00020300052464600666F6E742075706C6F3B
:100100006164696E672000464400434400237365C0
:1001100074757020646F6E650A00100E0F114D69C2
:100120007373696E672F4F6C6420436F6E666967E7
:100130003A202564206D79203739004D696E696D4C
:100140004F53442D4578747261204D41564C696E71
:100150006B20322E34FF756E6920723932302044A4
:1001600056FF0001000A006400E80320284E5453A3
:10017000432900202850414C290025372E326600A3
:1001800025362E3166009125372E326600A125379F
:100190002E3266007A010B6812030080018F686AB4
:1001A0000400800114730A030080011D7302030020
:1001B0008001126806030086019076FA02008D0124
:1001C000A076F602008001BD61FE02008001577733
:1001D000F20200800101666604004E6F20696E70B5
:1001E0007574206461746121202575FF00B8B90021
:1001F0002534690507002534690506006F766572A8
:100200006C6F61640066726F7A656E00537472651C
:10021000616D002534690500FF20CECECECE60CEC4
:10022000CECECE00FF20202024CB7C40CB240082E9
:1002300080818081808480818081808380818081B1
:100240008085808180818020C8C8C8C87EC8C8C811
:10025000C820FF0020202024CBB8B9CB24202020A8
:10026000FF002058650025322E3066002520342EF0
:100270003066002520342E3166002520342E32666B
:10028000005225332E306605005025332E3066058A
:10029000004825332E306605004225352E3166058F
:1002A000004525352E3166004525342E30666D001B
:1002B000734525352E31660081026E69640400891C
:1002C000026E6962040091026E6960040099025432
:1002D000695E0400A1024168570400A802586949F8
:1002E0000400B00241735304002090910025352E84
:1002F000316600432564253569FF002569002E25F8
:100300003464001F1C1F1E1F1E1F1F1E1F1E1F25C3
:10031000303269FF003A253032693A0020207820D7
:10032000207920207AFF0020B3FF20B3FF20C5FFF3
:1003300020B3FF20B300B2FFB2FFC6FFB2FFB2008E
:10034000B0B1B4B5B6B77B7D327C8900EDD96877A2
:10035000000000590000000000000000D69FDCA84B
:100360001817AA90437327F6B968EDF4DED409FE96
:10037000E61C1C84DDE80B992927D6DF8D210F03AD
:100380006418EFEE1E99B7825276941500347C0003
:100390000026149E988F0000006A31168F8C0596F7
:1003A00000E7B73F3600000000000000AF669ED0B7
:1003B000385D8A6C20B95422007CED044C8038747E
:1003C00086EDCBFA57CBDC19E2001DDF5506E5CBF5
:1003D00001C30000000000000000009AB20086DBAC
:1003E000D0BC5416131586004E44BD7F6F15159072
:1003F000010000B50000000000002F000034E500FF
:1004000000000000000000000047000000000000A5
:1004100000000000000000000000000000000000DC
:1004200000000000000000000000000000000000CC
:100430000000000000000000005A00000000000062
:1004400008CC31AA2C532E0002060A0F141E2D3C94
:100450000601020203050A0A0B020C0115AA20007C
:1004600001840800027C080003B417BC84750826C8
:10047000050B0A00072D1200347C0B0335770B04A3
:10048000185E0C0006AC140008D011000999200079
:1004900025F20F008B450F0B0AFE0B0019CB0B004A
:1004A0000D0E145C11C2101116290F1212641014D3
:1004B00017551013139F090214BC097F0F7717BD3E
:1004C0002E9609571B25171D9C310E151DED0F008B
:1004D0000EEC16091E7B150021C7080020460C00F3
:1004E000221F0F8F247A101F2BB3081F2CE60D003C
:1004F0002DBD0D002F9D0D001F1D0C0026420A0072
:1005000030DB07003158090033810B0023A91100AB
:10051000324211009AAE12000000000049050C00A2
:10052000002B0505C3070000000000FE0568000061
:1005300000E40566AB0425F10566AF0425C8056631
:10054000B30425D60566B70425B10600000000A156
:100550000642820400920642BB04008406628104C3
:1005600010720662800410610662880410540662EC
:10057000890410440600000000360662C004112DF4
:1005800006627F04121D065ABD04130F067ABC04CE
:1005900014C105BC05B7050000FF00010004000000
:1005A000000300E1FF1F00F1FF0F00FCFF0400C08B
:1005B000E0401F9CFF6400252E336600252E306628
:1005C0000025332E31667600526F6C6C2020696EE8
:1005D000204E54534300506974636820696E204E66
:1005E00054534300526F6C6C2020696E2050414C74
:1005F00000506974636820696E2050414C002020CF
:10060000486F72697A6F6E20616E676C6573005611
:100610006572746963616C206F66667300486F72FF
:10062000697A6F6E74616C206F66667300436F6EDB
:1006300074726173740053637265656E7320436FE7
:10064000756E7400202053637265656E2070617250
:10065000616D730052535349207761726E696E6702
:10066000004261747420636861726765207761720B
:100670006E004F7665727370656564207761726E87
:10068000696E67005374616C6C207761726E696E7D
:100690006700426174742032207761726E696E6700
:1006A0000042617474657279207761726E696E6759
:1006B000002020204F5344207365747570002E2550
:1006C000303264004325692000E5063E07B7079AEB
:1006D000078607E00686078607DB06696E697400F1
:1006E0006D6973730061726D003E079F07C1073922
:1006F00007BC0734072F072A0725078607B207A478
:1007000007A80786078607AD0720071B07160711EE
:1007100007716C6F690071686F76007173746200A5
:10072000696E6974006174756E006372757A006633
:1007300062776200666277610074726169006D6160
:100740006E7500C107BC07B707B207AD07A807A4BD
:10075000079F079A07950790078B07860781077CF5
:1007600007770772076E076907746872770062720D
:100770006B00686F6C640074756E6500666C697000
:100780000073707274006D5F2564006472696600A6
:100790006F666C6F006C616E6400706F73680063ED
:1007A0006972630072746C006C6F697400677569BC
:1007B00064006175746F00616C7468006163726FCE
:1007C000007374616200D407CE07E107DB072539A7
:1007D0002E3566002531302E3666002530356C64A6
:1007E000002530366C640065085B084F0842083607
:1007F0000829081D0812080608FB0746656E636590
:1008000020466172210046656E636520486967680D
:100810002100566962726174696F6E2100426174D1
:10082000742042206C6F7721004869676820565316
:1008300070656564210020204C6F772052737369C6
:10084000210042617474657279204C6F7721002019
:100850004F766572537065656421002020205374C3
:10086000616C6C2100204E6F2047505320666978E0
:10087000210025342E30660025342E3166002534C3
:100880002E32660025352E3266002532690025336A
:1008900069002534690025332E30660052B80E40B9
:1008A00085EB51401966BB0012800C1CA0141E661B
:1008B0006666400000803F100CBA000A00001BE88A
:1008C000031A0302010000407A10F35A00A0724E8E
:1008D00018090010A5D4E80000E87648170000E4E5
:1008E0000B54020000CA9A3B000000E1F50500002D
:1008F00080969800000040420F000000A086010092
:100900000000102700000000E80300000000640061
:10091000000000000A0000000000010000000000CC
:100920002C76D888DC674F0823DFC1DFAE59E1B1F0
:10093000B796E5E3E453C63AE651997696E8E6C2FF
:100940008426EB898C9B62ED407C6FFCEFBC9C9F06
:1009500040F2BAA56FA5F490055A2AF75C936B6C28
:10096000F9676DC11BFCE0E40D47FEF520E6B5001C
:10097000D0ED902E0300943577050080841E08008A
:1009800000204E0A000000C80C333333330F986E3A
:1009900012831141EF8D2114893BE65516CFFEE6F7
:1009A000DB18D1844B381BF77C1D901DA4BBE424BD
:1009B000203284725E228100C9F124ECA1E53D273A
:1009C0006E616E00696E66000000000800020100A2
:1009D00000030407000000000000000001020408FA
:1009E0001020408001020408102001020408102099
:1009F00004040404040404040202020202020303C5
:100A00000303030300000000230026002900000068
:100A10000000250028002B00000000002400270013
:100A20002A0074290F3011241FBECFEFD8E0DEBF9B
:100A3000CDBF11E0A0E0B1E0E2E6F7E702C005902B
:100A40000D92A235B107D9F727E0A2E5B1E001C0C8
:100A50001D92AE33B207E1F71AE0C6E2DAE004C055
:100A60002297FE010E94113BC232D107C9F70E94B2
:100A70002C370C94AF3B0C940000283008F027E092
:100A80003327DA01990F311D87FD916000966105CA
:100A9000710539F432602E5F3D9330E32A95E1F71A
:100AA00008959F3F30F080387105610509F03C5F83
:100AB0003C5F3D93913008F08068911DDF93CF93A8
:100AC0001F930F93FF92EF92192F987F9695E92F1E
:100AD00096959695E90FFF27E05EF64F9927332705
:100AE000EE24FF24A701E70105900894079428F459
:100AF000360FE71EF81E491F511D660F771F881F0E
:100B0000991F0694A1F70590079428F4E70EF81EA4
:100B1000491F561FC11D770F881F991F661F069416
:100B2000A1F70590079428F4F80E491F561FC71F18
:100B3000D11D880F991F661F771F0694A1F7059096
:100B4000079420F4490F561FC71FD81F990F661F1F
:100B5000771F881F0694A9F784911095177041F0AC
:100B6000D695C79557954795F794E7941A95C1F789
:100B7000E6ECF8E0689415901591359165919591A2
:100B800005907FE27395E118F10A430B560BC90BF0
:100B9000D009C0F7E10CF11E431F561FC91FD01D1D
:100BA0007EF4703311F48A95E6CFE894015030F06A
:100BB000080F0AF40027021708F4202F2395022FAC
:100BC0007A3328F079E37D932A95E9F710C07D9375
:100BD0002A9589F6069497956795379517951794F2
:100BE000E118F10A430B560BC90BD00998F0239575
:100BF0007E9173957A3308F070E37C932013B8F7F5
:100C00007E9170617D9330F0839571E37D9370E305
:100C10002A95E1F71124EF90FF900F911F91CF914A
:100C2000DF91992787FD90950895FA01AA2728302A
:100C300051F1203181F1E8946F936E7F6E5F7F4FA9
:100C40008F4F9F4FAF4FB1E03ED0B4E03CD0670F25
:100C5000781F891F9A1FA11D680F791F8A1F911D78
:100C6000A11D6A0F711D811D911DA11D20D009F4C8
:100C700068943F912AE0269F11243019305D31930A
:100C8000DEF6CF010895462F4770405D4193B3E0F3
:100C90000FD0C9F7F6CF462F4F70405D4A3318F09A
:100CA000495D31FD4052419302D0A9F7EACFB4E04B
:100CB000A6959795879577956795BA95C9F7009703
:100CC0006105710508959B01AC010A2E06945795A4
:100CD000479537952795BA95C9F7620F731F841FFB
:100CE000951FA01D0895CF92DF92EF92FF920F9370
:100CF0001F93E82FF92F05C001501109210931096F
:100D000061F1908196239417B9F305C00150110940
:100D10002109310911F1908196239413F7CFC12C49
:100D2000D12CE12CF12C0AC08FEFC81AD80AE80A9E
:100D3000F80A0C151D052E053F0579F080818623E4
:100D4000841791F36C2D7D2D8E2D9F2D1F910F916A
:100D5000FF90EF90DF90CF90089560E070E080E02A
:100D600090E01F910F91FF90EF90DF90CF9008954A
:100D7000FB019081982780E1989F900111242927F9
:100D8000822F90E0382F2227AC0163E0440F551FDB
:100D90006A95E1F724273527418150E0242735273C
:100DA00074E0959587957A95E1F72827392731835F
:100DB00020830895262FBC01822F0C94B806E82FBB
:100DC000F0E0EE0FFF1FE95CFB4F80819181611124
:100DD00005C028EE33E040ED57E004C020E233E0E8
:100DE00048E958E08217930790F0FC01E21BF30BEF
:100DF000CA01821B930B65E070E00E94A63ACF0106
:100E00000E94A63A862F653018F084E0089580E0AD
:100E10000895A7E3B4E0EBE1F3E080819181883E9F
:100E2000934028F48D919C91119791838083329601
:100E3000129683E0E332F80781F7089590E0880F77
:100E4000991FDC01A95CBB4FFC01E55EFC4F8D9155
:100E50009C9120813181821B930B0895E0911A03AC
:100E600025E0E29FF0011124E25EFA4F64916150A7
:100E700040911803509119039091160187FF03C008
:100E8000992339F004C0882311F0961721F0980FA8
:100E900003C0962F01C090E0FA0126E0929FE00D7A
:100EA000F11D1124339625913491232B39F390931E
:100EB00016010895EF92FF920F931F93CF93DF9344
:100EC0008B017A01E80EF91EEC01081B190BCE15F7
:100ED000DF0539F0C8018C0F9D1F0E94993B899353
:100EE000F6CFDF91CF911F910F91FF90EF90089572
:100EF000CF93DF9300D0CDB7DEB79091A303682FD7
:100F000070E0660F771F80E8989F600D711D1124B7
:100F100042E050E0CE0101960E945A0789819A81F1
:100F20000F900F90DF91CF910895CF92DF92EF92C3
:100F3000FF920F931F93CF93DF931F92CDB7DEB72E
:100F40006B018A017C01060F171FC016D10689F0BC
:100F5000F70161917F01C60169830E94993B698114
:100F6000861719F0C6010E94A13BFFEFCF1ADF0AD6
:100F7000ECCF0F90DF91CF911F910F91FF90EF90E9
:100F8000DF90CF90089566E089E00C942B2F692FB5
:100F90000C942B2F7F936F939F938F938CEC92E005
:100FA0009F938F930E9439300F900F900F900F9066
:100FB0000F900F900895CF92DF92EF92FF920F93D0
:100FC0001F93CF93DF93D92E0091EE021091EF0281
:100FD0002091F0023091F10280915103882309F4AD
:100FE0007BC0C2EBD7E0E4E6F0E090E9E92EFF2415
:100FF000F394CE0183709927892B71F4CE01BF0140
:101000000E94A63A892B09F062C0CE01B7010E9466
:10101000A63A892B09F45BC0C12C8DE691E0A0E0D3
:10102000B0E0081719072A073B0730F0081B190B17
:101030002A0B3B0B2196DDCF80E090E0A82FFC012E
:10104000ED5FFC4F4491813011F4C1104F5F50E0CF
:1010500060E070E0041715072607370748F0041B07
:10106000150B260B370B01968C30910539F7ACE048
:101070000F5F1F4FEA2EF12CD6FE10C0B8018FEB88
:1010800096E00E94CA07B7016F5F7F4F8EEB96E034
:101090000E94CA07BE018EEF92E00FC0BE0182E936
:1010A00098E00E94CA07B7016F5F7F4F8EEB96E012
:1010B0000E94CA07B8018EEB96E0DF91CF911F9195
:1010C0000F91FF90EF90DF90CF900C94CA07CC2443
:1010D000C3948EE691E0A3CFDF91CF911F910F9142
:1010E000FF90EF90DF90CF90089560912C0470E016
:1010F0008AE898E00C94CA076091D5037091D603F2
:1011000086EF91E00C94CA076091D3037091D403E9
:1011100080EF91E00C94CA07CF93DF931F92CDB775
:10112000DEB77F936F935F934F939F938F934CECB6
:1011300052E05F934F9329830E9439300FB6F894A1
:10114000DEBF0FBECDBF2981222331F0822F0F9049
:10115000DF91CF910C94632F0F90DF91CF91089581
:1011600020E00C948C08609147047091480480E062
:1011700090E00E94A33820E030E048EC52E40E9466
:101180000A38AB01BC018EE798E00C94B008CF920E
:10119000DF92EF92FF920F931F93CF93DF93809193
:1011A000350490913604FC013A96149132960491DC
:1011B0000D96FC01C591D491609124047091250491
:1011C00080E090E00E94A33820E030E040E251E46B
:1011D0000E940A386B017C01602F70E080E090E093
:1011E0000E94A5389B01AC01C701B6010E94BE391F
:1011F0006B017C01BE0180E090E00E94A3389B015E
:10120000AC01C701B6010E943D3720E030E048EC58
:1012100052E40E940A38AB01BC01212F8DEE92E00E
:10122000DF91CF911F910F91FF90EF90DF90CF90C2
:101230000C948C088FEF0C94632F80E20C94632F36
:10124000EF92FF920F931F93CF93DF93EC01E62E63
:10125000F42E6CE370E00E94A63A8C018EE898E0D0
:101260000E94CA07FF2049F0B80185E193E00E947F
:10127000CA076F2D6F7770E011C0EE2031F08091BA
:101280004203882311F080E201C08AE30E94632FA9
:10129000CE016CE370E00E94A63ABC018FE093E0BF
:1012A000DF91CF911F910F91FF90EF900C94CA079F
:1012B0001F93CF93DF93192F80915103882359F106
:1012C0006091EA027091EB028091EC029091ED0244
:1012D0002091840430E0245131094CE3429FE00125
:1012E000439FD00D11242CE330E040E050E00E94F9
:1012F000CE3AC20FD31F15FF04C0462F406860E0EE
:1013000004C016FB662760F940E0CE01DF91CF9163
:101310001F910C942009DF91CF911F91089540E017
:1013200060E00C94200985E20C94632F60912E04F8
:1013300070E08AE898E00E94CA070C9493096091D3
:10134000B60370E08EE898E00E94CA070C949309F7
:10135000CF93813110F08051FCCF811101C080E129
:10136000C82FCC0FC25080E98C0F0E94632F81E9F7
:101370008C0FCF910C94632F8091AA038E30C1F40F
:101380002091210430E087E090E0682FA901082E29
:1013900002C0559547950A94E2F740FD03C00197B6
:1013A000A0F768E06093210429E089EC96E00BC087
:1013B00080917D04811104C024E189EE96E003C090
:1013C00023E183E497E030912104632F70E032172A
:1013D00040F4FB01EE0FFF1FE80FF91F8591949178
:1013E00002C086E897E00E94CA0780913D038823E7
:1013F00019F086E80C94632F089588E80E94632F03
:10140000809119010E94632F80911A010E94632F1D
:101410008EE80C94632F1F93CF93DF93D82F192F4F
:101420008091F203823019F020F4CAE203C0CFE1C8
:1014300001C0CFE02091470430914804283C310599
:1014400020F0809142038111C0E2D7FD02C016FF57
:1014500011C06091F30370E08AE898E00E94CA0727
:10146000D7FD0CC016FF0AC08C2FDF91CF911F91C2
:101470000C94632F8C2F0E94632FEBCFDF91CF91C1
:101480001F910895EF92FF920F931F93CF93DF93D5
:101490001F92CDB7DEB7182F80916003882309F41F
:1014A00071C040915E0350915F032091B40330916D
:1014B000B5034217530709F465C080915C0383307C
:1014C00010F000E001C001E25AE1F52E80915D03C9
:1014D000F81AF7FC17C08F2D8695692F810F0E948F
:1014E0002B2F17FD02C0011157C060E673E08CEC92
:1014F00092E00F90DF91CF911F910F91FF90EF90AD
:101500000C94C33617FD02C001114AC096FD1DC0E0
:10151000F1942F2D30E08091A40390915B03891BFF
:1015200090E0B901660F771F0E94BA3A40915403C8
:1015300041110DC0009729F02150310982179307FE
:1015400031F421E02093540302C080E090E09C013C
:10155000205A3C4F79018901065E1F4FF7018191A6
:101560007F01811109C00F90DF91CF911F910F91E1
:10157000FF90EF900C941D090E94632FE016F10676
:1015800069F7F1CF109260030F90DF91CF911F9117
:101590000F91FF90EF900895802F0E94632FA5CFA9
:1015A000802F99830E94632F9981B0CFBC0188EC72
:1015B00092E00C942F3083EF90E00C94D60A0E94B6
:1015C0003C3720EC3BE649ED57E40E94BE390895D4
:1015D000CF92DF92EF92FF92CF936B017C01C42FE9
:1015E00020E030E0A9010E94B339181624F0F7FA80
:1015F000F094F7F8F094C701B6010E94723888277A
:1016000077FD8095982F0E94A5389B01AC01C701FA
:10161000B6010E943C37CC2329F020E030E543ECB2
:1016200057E404C020E034E244E759E40E94BE39A4
:101630000E947238CF91FF90EF90DF90CF90089585
:10164000EF92FF921F93CF93DF931F92CDB7DEB738
:10165000182F7C018E2D811B861740F4F701819194
:101660007F0169830E94D8306981F4CF0F90DF91A8
:10167000CF911F91FF90EF900895CF93DF9386FB5A
:10168000442740F9E42FF0E0EE0FFF1F85FF22C052
:10169000E653F84FC591D491FB016081718182813D
:1016A00093810E94E80A9F938F937F936F93DF93B8
:1016B000CF938CEC92E09F938F930E943930EDB7DB
:1016C000FEB738960FB6F894FEBF0FBEEDBFDF91A0
:1016D000CF910895EA53F84F85919491FB01408191
:1016E000518162817381DF91CF910C94B00868EFD2
:1016F00073E0892F0C943D0B64EF73E0892F0C94F9
:101700003D0BFF920F931F93CF93DF93C0EDD2E079
:1017100096FD1BC0F12C09E010E0899199918C5441
:101720009440B8010E94A63A8FEB96E00E94CA0747
:1017300081E0F81203C00E941A0902C00E941D092C
:10174000F39484E0F812E9CF11C010E06991799127
:1017500082E998E00E94CA07113019F40E941A0920
:1017600002C00E941D091F5F143081F7DF91CF91E5
:101770001F910F91FF900895CF93C42F28EE33E06F
:1017800040E050E00E94CE3ADA01C90140E06C2FFF
:10179000CF910C94200996FB442740F960911104E5
:1017A0007091120480911304909114040C94BC0B5A
:1017B000CF93C82F6091B0017091B1018091B201B7
:1017C0009091B3010E947238615071096F30774275
:1017D00098F4C7FD03C086E10E94632F4091B001D9
:1017E0005091B1016091B2017091B30121E082E7A3
:1017F00098E0CF910C948C08CF910895CF93DF930C
:101800001F92CDB7DEB780914403882391F0809179
:10181000DD0399830E94A809998196FF0AC060910F
:10182000DD0370E08EE898E00F90DF91CF910C948B
:10183000CA070F90DF91CF910895292F8091B403AB
:101840009091B5038F739927029710F026FF06C079
:101850006AE874E08CEC92E00C94C33608957F93B0
:101860006F939F938F9383EF92E09F938F938CEC72
:1018700092E09F938F930E9439308DB79EB7089660
:101880000FB6F8949EBF0FBE8DBF08950F931F93A0
:10189000CF93DF9307E314E0C1E0D0E0F80161915A
:1018A00071918F01CE010E942F0C2196C930D10574
:1018B000A9F7DF91CF911F910F9108951F93CF93B7
:1018C000DF93482F192F209127042F55C0912E0404
:1018D000263008F050C0D0E09C2F80E064E670E035
:1018E0000E94A63A9B016138710540F089E8809317
:1018F000190120583109EAE1F1E012C08DE8809326
:101900001A016231710550F480914203882331F04D
:1019100020E22093190120931A010AC0E9E1F1E0C5
:10192000C9016AE170E00E94A63A2DE8261B2083D7
:1019300047FF0E94FD0916FF0AC0BE018AE898E031
:101940000E94CA07DF91CF911F910C949309609177
:1019500066047091670480916804909169040E9404
:10196000723882E998E00E94CA0781E0DF91CF9146
:101970001F910C94632F24E6C29FC00111246FEFC6
:1019800070E00E94BA3AEB01A7CF9F92AF92BF924C
:10199000CF92DF92EF92FF920F931F93CF93DF933B
:1019A000CDB7DEB72A970FB6F894DEBF0FBECDBF16
:1019B000D62EB72EC42EA22E9EEF99834A839091E5
:1019C000A9019B8320910F012C83209110012D836D
:1019D0008E839F5F9093A901EFEFFFEFF887EF836E
:1019E0008E010E5F1F4F7E0187E0E80EF11C0E1581
:1019F0001F0539F0B701F80181918F010E94B806E7
:101A0000F6CFEF81F885FA87E9870D2D1B2D9C2CE9
:101A10009D0CBE01675F7F4F901631F0F8018191F8
:101A20008F010E94B806F5CF8A2D0E94B8069985CD
:101A30008A859F83888766E0CE0101960E94200BED
:101A40006C2D8D2D9B2D0E94200B62E0C7010E9402
:101A5000200B2A960FB6F894DEBF0FBECDBFDF91E4
:101A6000CF911F910F91FF90EF90DF90CF90BF909B
:101A7000AF909F9008951F920F920FB60F9211246E
:101A80002F938F939F93EF93FF939091C600809134
:101A900033078F5F8F7720913407821741F0E091F1
:101AA0003307F0E0EF54F94F908380933307FF91B1
:101AB000EF919F918F912F910F900FBE0F901F90DC
:101AC00018951F920F920FB60F9211248F939F9328
:101AD000EF93FF939091320780913107981779F037
:101AE000E0913207F0E0E355F94F80818093C60022
:101AF000809132078F5F83708093320705C0809199
:101B0000C1008F7D8093C100FF91EF919F918F91D4
:101B10000F900FBE0F901F90189595FB222720F96C
:101B200094FF02C092E001C090E0292B86FF02C022
:101B300084E001C080E0822B08951F93CF93DF9350
:101B4000182F0E948D0D8C5FC82FD0E017FD07C0A5
:101B5000BE016F5F7F4F84EC96E00E94CA07FE01D2
:101B6000EE0FFF1FE95CFB4F6081718182E998E015
:101B7000DF91CF911F910C94CA071F93CF93DF93EE
:101B8000182FC92F0E948D0DD4E0D80F17FD08C063
:101B90006D2F70E06F5F7F4F8BEF92E00E94CA075E
:101BA000C6FB662760F98D2F0E94DF06D82FC0E0A4
:101BB000CD1711F080E801C081E80E94632FCF5F4C
:101BC000C530B1F7DF91CF911F9108951F93CF9347
:101BD000DF93182FC92F0E948D0DD4E0D80F17FD69
:101BE00008C06D2F70E06F5F7F4F84EC96E00E941D
:101BF000CA07C6FB662760F98D2F0E94DF06182FE3
:101C0000C0E0D3E0CE010E94993B8F3F71F081117B
:101C100003C0112351F01150111102C00E94632F13
:101C20002196C03883E0D80769F7DF91CF911F91E3
:101C3000089596FB222720F930E095FF03C082E04B
:101C400090E002C080E090E0822B932B01978330DC
:101C5000910528F4FC01E25EFE4F8081089580E04A
:101C60000895CF92DF92EF92FF92CF93C82FF92E73
:101C70000E94190E80931501F7FC4BC0F4FE2DC095
:101C800081E08093490320E030E040E752E4609136
:101C90006E0470916F0480917004909171040E94A1
:101CA0000A386B017C010E9472389B0177FF04C0E7
:101CB00022273327261B370B2A3031052CF4C6FD8B
:101CC00025C08AE792E005C024363105FCF08CE699
:101CD00092E028E1B701A60112C010924903E091F9
:101CE0003504F09136047296249140916E0450911F
:101CF0006F0460917004709171048CE692E0CF9152
:101D0000FF90EF90DF90CF900C948C0883E792E0E7
:101D1000E0CFCF91FF90EF90DF90CF9008950F9399
:101D20001F93CF93DF93EC018B010E94C934600FA6
:101D3000711F811D911D688379838A839B83DF9145
:101D4000CF911F910F9108959B01FC01408151811A
:101D500062817381420F531F611D711D4083518346
:101D6000628373830895E0913504F09136043496CC
:101D700065917591859194910895CF92DF92EF923C
:101D8000FF920F931F93CF93DF9300D000D0CDB776
:101D9000DEB79B01AC0169833A834B835C830E946D
:101DA000B30E29813A814B815C810E94BE396B015F
:101DB0007C0120E03CE34CE156E40E9403380091B2
:101DC000350410913604F80118163CF03996249128
:101DD000B701A60182E798E024C0709665917491DE
:101DE00080E090E00E94A3389B01AC01C701B601DE
:101DF0000E940A386B017C010E9472386A307105BA
:101E000034F06436710534F488E798E005C08EE755
:101E100098E002C082E798E0F8013F962491B7016C
:101E2000A6010F900F900F900F90DF91CF911F910F
:101E30000F91FF90EF90DF90CF900C948C08609101
:101E40006A0470916B0480916C0490916D040C9401
:101E5000BD0E40914F045091500460915104709117
:101E6000520496FD09C0411551056105710521F027
:101E7000CB01BA010C94BD0E4091CD035091CE031D
:101E80006091CF037091D003F3CF96FB882780F940
:101E90008093530380914403882371F097FD0CC015
:101EA0006091DE037091DF038091E0039091E10384
:101EB0000E94A5380C94BD0E0895E0913504F09170
:101EC000360465917591859194910895CF92DF9232
:101ED000EF92FF920F931F93CF93DF93EC01F62EB7
:101EE000FE01059114910115110509F46DC0FE0163
:101EF0003296849181110E94632FFE013396849162
:101F00003196C590D4908936D9F070F4813689F035
:101F1000883609F03DC0E0913504F09136043996D9
:101F2000E4900E94B30E3DC08337B1F08637E9F0EC
:101F30002FC061E4E62E6AE077ED83E29CE331C0D6
:101F4000F60160817181882777FD8095982F0E9426
:101F5000A53850E2E52E2CC0E0913504F09136040E
:101F60003896E4900E945D0F1CC00E94B30E209131
:101F70004903211114C0E0913504F09136047296A2
:101F8000E49020E030E040E752E40E94BE3909C00E
:101F900040E2E42E60E070E080E89FE302C038E1B8
:101FA000E32EF60120813181428153810E94BE39A6
:101FB0002E2DAB01BC01C8010E948C080E941A0999
:101FC0002796FA9409F08CCFDF91CF911F910F9152
:101FD000FF90EF90DF90CF90089567E088EB92E05C
:101FE0000C94660FCF93DF93D82FC92F0E94C70799
:101FF00088E00E94632F6091110470911204809117
:1020000013049091140440E00E94BC0B6AE084E940
:1020100091E00E94660FC6FF05C06C2F8AE08D0F0D
:102020000E942B2F83E00E94632F64EF73E080E017
:102030000E943D0B0E941A0984E00E94632F68EF02
:1020400073E080E0DF91CF910C943D0BCF92DF9253
:10205000EF92FF921F93CF93DF93EC016A017B0114
:10206000122F0E945D0F9B01AC01C701B6010E94B7
:10207000BE39112341F026E636E646E650E40E94DA
:102080000A3828E106C0E0913504F091360438960C
:102090002491AB01BC01CE01DF91CF911F91FF9044
:1020A000EF90DF90CF900C948C0896FB222720F9BC
:1020B0004091C5035091C6036091C7037091C80356
:1020C00086E998E00C94261096FB222720F940918F
:1020D000BB035091BC036091BD037091BE0386E9C0
:1020E00098E00C94261020E030E04AE754E40E9487
:1020F0000A3808950F931F93CF93DF9300D000D039
:10210000CDB7DEB70091B4011091B5010E94B30EB6
:102110009B01AC018AEF809FB001819F700D11245B
:10212000882777FD8095982F2C8339834A835B839A
:102130000E94A5382C8139814A815B810E94BE3979
:10214000E0913504F0913604083211055CF03F96B9
:1021500024912C830E947310AB01BC012C818EE76B
:1021600098E006C039962491AB01BC0182E798E063
:102170000F900F900F900F90DF91CF911F910F91C3
:102180000C948C080F931F93292F207495FF15C072
:102190006091CD037091CE038091CF039091D003D5
:1021A000222329F12091C9033091CA034091CB0326
:1021B0005091CC030E943C371AC06091FC0370918F
:1021C000FD038091FE039091FF03222361F00091B3
:1021D000EA031091EB032091EC033091ED03601BB7
:1021E000710B820B930B0E94A5380E9473101F91F4
:1021F0000F910C94BD0ECF93DF93662319F0C8E7BF
:10220000D8E002C0C4E8D8E0BC0180E090E00E94C1
:10221000A3380E947310AB01BC012DE0CE01DF9109
:10222000CF910C948C082091B4033091B503260F04
:10223000311D30935F0320935E0380935D03809193
:10224000A40380935B03089597FF03C088599E4FB2
:102250000895893621E0920714F088569140089538
:10226000CF93DF93EC010E94C93428813981CB01DF
:10227000821B930BDF91CF910895BC018CEC92E00F
:102280000C941A301F93CF93DF93182FC92F87FD1B
:1022900010C096FD04C0D1E086E393E003C0D0E017
:1022A00087E293E00E943D11812F9C2F0E94C70777
:1022B00001C0D0E080916E0490916F04A0917004F1
:1022C000B0917104BC01CD0190589B01AC010E94FA
:1022D0003D370E94723880912E0382FF05C0CB01EA
:1022E0006CE370E00E94BA3AC5FF05C0CB016AE01A
:1022F00070E00E94BA3AC4FF06C077FF02C06F5F69
:102300007F4F7595679516FF08C077FF02C06D5F18
:102310007F4F7595679575956795CB018D9697FD60
:1023200001969595879569E070E00E94BA3A65300C
:102330002CF467FD06C04FEC481B05C04EE764E077
:1023400002C040E660E08D2FDF91CF911F910C9489
:10235000742FCF93DF9387FD04C08CE193E00E943C
:102360003D11CEEDD2E0499159916991799186E97B
:1023700098E00E94B00882E0CA3ED807A1F70E9408
:102380001A09C8EDD2E0699179918EE898E00E942F
:10239000CA0782E0CE3DD807B1F7DF91CF9108950B
:1023A000FF920F931F93CF93DF93F82E092F192FCE
:1023B000107287FD08C096FD06C01123B9F184E5AF
:1023C00092E00E943D1183EC0E94632F2091D10383
:1023D0003091D20348E1429FC001439F900D1124E8
:1023E0000C9668E671E00E94BA3A64507109C62FF3
:1023F00077FF02C0C8E1C60F112311F0DAE001C077
:10240000D9E0EC2FF0E0E15DFD4F84910E94632F55
:10241000CF5FC83108F0C0E0D15099F787E80E943B
:10242000632FF7FC14C006FD04C011C087E492E0DE
:10243000C8CF112349F084E292E0DF91CF911F9140
:102440000F91FF900C943D1188E192E0F6CFDF915F
:10245000CF911F910F91FF9008951F93CF93DF931A
:10246000D82FC92F2091B4033091B5038091AC03CC
:102470009091AD03A901481B590B4B30510520F039
:102480003093AD032093AC034091AC035091AD0366
:10249000241B350B2230310508F05CC04091F80355
:1024A0005091F9036091FA037091FB03452B462B81
:1024B000472B69F44091F4035091F5036091F603C2
:1024C0007091F703452B462B472B09F443C0C4FFFB
:1024D00002C010E201C01FEF80914203882301F186
:1024E00080914E038A3050F08CE092E00E943D11C2
:1024F000812F0E94632F85E092E00DC080914F03F1
:102500008A3070F08CE092E00E943D11812F0E9491
:10251000632F8CEF91E0DF91CF911F910C943D11CF
:10252000D7FD03C083E00E94632F64EF73E08C2F1C
:102530000E943D0B812F0E94632FD7FD03C084E0D2
:102540000E94632F68EF73E08C2FDF91CF911F9172
:102550000C943D0BDF91CF911F910895BF92CF92C4
:10256000DF92EF92FF920F931F93CF93DF938091AF
:102570003C03882309F412C110923C03C090C503A8
:10258000D090C603E090C703F090C8030E945D0F8F
:102590009B01AC01009133041091340480914803F5
:1025A000882351F091E080E06091F203623008F0FE
:1025B00090E0C92FD82F02C0C0E0D0E0B0908004D6
:1025C000BB2061F0C701B6010E94BE390E9472387B
:1025D0002B2D30E0261737070CF4C460E0912E0451
:1025E0004091270420918204222361F0C80164E60F
:1025F00070E00E94A63A6115710521F030E0621783
:102600007307ECF0209188042223D1F034E6E39F95
:10261000C0011124342F47FF02C031E0340F35953B
:10262000830F911D37FD9A95642F772767FD70956D
:102630000E94BA3A822F90E0681779070CF4C860BC
:102640008091870480FD0BC08091890490E02091E7
:102650009503309196032817390708F4C061C0909C
:102660006E04D0906F04E0907004F090710420E04C
:1026700030E0A901C701B6010E94B33918161CF455
:10268000C701B60103C0C701B60190580E94723855
:10269000CB016AE070E00E94BA3A80917D048130FB
:1026A00049F480918104882329F090E086179707E8
:1026B0000CF4C06280913104909132042091BB04EB
:1026C000222369F064E670E00E94A63A6115710564
:1026D00031F0822F90E0681779070CF4C0646091A4
:1026E000C604662399F170E080E090E00E94A5386E
:1026F0006B017C019B01AC016091DE027091DF02F5
:102700008091E0029091E1020E94B33987FF1CC0E2
:10271000A70196016091E2027091E3028091E402C8
:102720009091E5020E94B33987FF0EC0A701960180
:102730006091E6027091E7028091E8029091E902CF
:102740000E94B33987FD02C0C06802C0209721F102
:102750005091AF0181E05111850F8093AF014091FD
:10276000AF012FEF240F81E090E002C0880F991F86
:102770002A95E2F74B3018F041E081E090E09C01AF
:102780002C233D23232B21F4880F991F4F5FF2CF79
:102790004093AF01451302C01092AF01E091AF0129
:1027A000EE2391F0F0E0EE0FFF1FEB51F84F859113
:1027B0009491DF91CF911F910F91FF90EF90DF9057
:1027C000CF90BF900C943D11DF91CF911F910F914D
:1027D000FF90EF90DF90CF90BF90089581E08093BD
:1027E000360388E0EBE1F3E0DF011D928A95E9F71B
:1027F00080E00E94780790932F0380932E03089522
:1028000024E0880F991F2A95E1F78C549F4F68E6C2
:1028100071E00E94BA3ACB0101960895AF92BF923F
:10282000CF92DF92EF92FF921F93CF93DF9300D06E
:1028300000D0CDB7DEB7809121048A3009F07EC088
:10284000A0904904B0904A0488EEA81683E0B80628
:1028500054F4E9E1AE16ECEFBE064CF439E1A32ED8
:102860003CEFB32E04C047EEA42E43E0B42EE0911B
:102870003504F09136043996149160915B0470E050
:102880008AE898E00E94CA070E941D0960915C04D2
:1028900070915D0480E090E00E94A3386B017C01A0
:1028A0000E94B30E9B01AC01C701B6010E94BE3964
:1028B000AB01BC01212F82E798E00E948C080E94A6
:1028C0001A0980915E0490915F040E942411209166
:1028D000D1033091D203821B930B0E9400140E94FB
:1028E000A80982E692E00E943D110E94B30E9B016E
:1028F000AC01B501882777FD8095982F29833A830D
:102900004B835C830E94A53829813A814B815C818D
:102910000E94BE39AB01BC01212F82E798E00F90E5
:102920000F900F900F90DF91CF911F91FF90EF903C
:10293000DF90CF90BF90AF900C948C080F900F90C9
:102940000F900F90DF91CF911F91FF90EF90DF904C
:10295000CF90BF90AF9008958091F0039091F103D4
:10296000C29664E670E00E94A63A2091D1033091AD
:10297000D203CB01821B930B0E942411845B91092B
:102980009093EF038093EE030E940014885F0E94EF
:10299000A8096091EE037091EF0383E192E00C943B
:1029A000CA07CF92DF92EF92FF92CF93DF93EC01B1
:1029B0006A017B019A01AB01688179818A819B81DF
:1029C0000E94033887FF04C0C882D982EA82FB8252
:1029D000DF91CF91FF90EF90DF90CF9008958F928D
:1029E0009F92AF92BF92CF92DF92EF92FF921F938E
:1029F000CF93DF93EC014A015B01122FC880D9808D
:102A0000EA80FB8020E030E0A901C701B6010E9406
:102A10000338882311F0123028F488829982AA8220
:102A2000BB821EC0A7019601C501B4010E943C37BC
:102A30004B015C01612F70E080E090E00E94A538BE
:102A40009B01AC01C501B4010E940A389B01AC0195
:102A5000C701B6010E943D37688379838A839B83CF
:102A6000DF91CF911F91FF90EF90DF90CF90BF90BB
:102A7000AF909F908F9008958F929F92AF92BF9248
:102A8000CF92DF92EF92FF9260912F047091300409
:102A9000882777FD8095982F0E94A5386B017C01CF
:102AA0008090BB039090BC03A090BD03B090BE0388
:102AB0000E945D0F9B01AC01C501B4010E94BE39AB
:102AC0009B01AC01C701B6010E940A3820E030E04A
:102AD00040E251E40E94BE39AB01BC0124E680EB28
:102AE00091E0FF90EF90DF90CF90BF90AF909F90DC
:102AF0008F900C94EF14CF92DF92EF92FF920F938E
:102B00001F93CF93DF93182F80913D03882309F4FF
:102B10005AC196FF13C020E030E0A9016091BB03C9
:102B20007091BC038091BD039091BE030E94033855
:102B3000882309F448C10E943C1521C080917D047E
:102B40008111EBC020E030E0A9016091BB037091DE
:102B5000BC038091BD039091BE030E94033888237B
:102B600009F431C10E943C159091B6038091400355
:102B7000933080F0811103C081E080934003812F66
:102B8000DF91CF911F910F91FF90EF90DF90CF9049
:102B90000C94D80B882311F180914F04909150042C
:102BA000A0915104B09152048093040490930504C1
:102BB000A0930604B093070480916A0490916B047B
:102BC000A0916C04B0916D0480939E0190939F013D
:102BD000A093A001B093A10110924003C090000403
:102BE000D0900104E0900204F09003042DEC3CEC42
:102BF0004CE45DEBC701B6010E94033887FF6AC051
:102C0000C0904F04D0905004E0905104F0905204D2
:102C1000A701960160910404709105048091060457
:102C2000909107040E943C379B01AC01C701B6019B
:102C30000E940A386B017C0120919E0130919F0116
:102C40004091A0015091A10160916A0470916B04C0
:102C500080916C0490916D040E943C379B01AC0103
:102C6000C701B6010E94BE396B017C010E94B30E00
:102C70009B01AC01C701B6010E94BE396B017C010A
:102C80000E947238603187E2780724F4161617061E
:102C900044F099C0C12C5CE3D52E5CE1E52E56E4EE
:102CA000F52E17FD03C08EEE0E94632FE0913504D0
:102CB000F091360439962491B701A60182E798E095
:102CC000DF91CF911F910F91FF90EF90DF90CF9008
:102CD0000C948C082DEC3CEC4CE45DEBC701B60188
:102CE0000E94B33987FD6FC08091D3039091D403C4
:102CF00097FF69C080914203811103C089EE92E081
:102D000002C08AEE92E0DF91CF911F910F91FF9068
:102D1000EF90DF90CF900C943D1100912E04C02FC6
:102D2000D0E080912604992787FD9095C817D90790
:102D3000B9F1602F70E080E090E00E94A3386B0151
:102D40007C016091110470911204809113049091A0
:102D500014040E94A3389B01AC01C701B6010E9474
:102D6000BE396B017C0160912704772767FD709560
:102D70006C1B7D0B882777FD8095982F0E94A538C6
:102D80009B01AC01C701B6010E940A380E94731072
:102D90000E947738709323046093220400932604E2
:102DA00017FD03C087E10E94632F80912204909158
:102DB0002304DF91CF911F910F91FF90EF90DF904F
:102DC000CF900C948F09DF91CF911F910F91FF90BD
:102DD000EF90DF90CF9008951F93CF93DF931F92D2
:102DE000CDB7DEB7192F0E94190E282F60919503D9
:102DF0007091960380E090E029830E94A338AB0194
:102E0000BC0129818AE991E00E94EF1460919A0146
:102E100070919B0180919C0190919D010E9472385C
:102E20008EE898E00E94CA078091870480FD08C060
:102E300014FF06C00F90DF91CF911F910C9493095E
:102E40000F90DF91CF911F910895CF92DF92EF9273
:102E5000FF920F931F93CF93DF93092F8091BF03AE
:102E60009091C0030E942411EC01C090C103D09046
:102E7000C203E090C303F090C40324E6B701A601A7
:102E800082E794E00E94EF1406FB112710F9212F2E
:102E9000B701A60186E998E00E9426100E941A094F
:102EA0008091D1039091D2039E01281B390BC90157
:102EB0000E94001405FF02C098E001C090E0890F55
:102EC0000E94A809409172045091730460917404A7
:102ED00070917504212F86E692E0DF91CF911F91CA
:102EE0000F91FF90EF90DF90CF900C9426100F93EE
:102EF0001F93CF93DF931F92CDB7DEB7192F0E9498
:102F0000190E282F60912F0470913004882777FDC7
:102F10008095982F29830E94A538AB01BC01298197
:102F200086E991E00E94EF1414FF03C008E718E05F
:102F300002C004E818E02AE037ED43E25CE3609168
:102F400096017091970180919801909199010E944A
:102F5000BE39AB01BC012EE0C8010F90DF91CF91CB
:102F60001F910F910C948C081F93CF93DF931F92A6
:102F7000CDB7DEB7192F0E94190E282F60913304A8
:102F80007091340480E090E029830E94A338AB0163
:102F9000BC01298182E991E00E94EF141295117021
:102FA00060919201709193018091940190919501AB
:102FB0000E947738DC01CB01612F0F90DF91CF9118
:102FC0001F910C94FB102AE00C94EF14CF93DF9325
:102FD000EC019A01AB01688179818A819B810E9411
:102FE0003D37688379838A839B83DF91CF910895EE
:102FF0002F923F924F925F926F927F928F929F9209
:10300000AF92BF92CF92DF92EF92FF920F931F93F6
:10301000CF93DF93CDB7DEB727970FB6F894DEBF17
:103020000FBECDBF8DE094E00E9430111C0160E026
:1030300070E08DE094E00E948F0EB10180E090E09E
:103040000E94A3380E9473104B015C0160912F0411
:1030500070913004882777FD8095982F0E94A538BD
:103060006B017C01609133047091340480E090E046
:103070000E94A33820E030E543EC57E40E940A3870
:10308000A70196010E94BE39AB01BC0188E294E021
:103090000E94E31710911501409000045090010424
:1030A00060900204709003040E94B30E9B01AC0177
:1030B000C301B2010E94BE3920E030E040E752E493
:1030C0000E94BE39AB01BC01212F8EE694E00E9424
:1030D000EF1440912E0420912704332727FD3095CB
:1030E000842F90E02817390714F440932704809127
:1030F0007D04811120C01091410310FD1CC060911E
:103100004F047091500480915104909152040E9498
:103110007238663071057CF08091B6038F3158F0BB
:1031200011601093410310926A0410926B04109284
:103130006C0410926D04A5019401C701B6010E94B0
:10314000BE3920E030E044EB53E40E940A38AB0182
:10315000BC0186E694E00E94E61780919703909167
:1031600098032091870420FD5FC00091C104109155
:10317000C2044091C3045091C404401751073CF06D
:10318000342F252FA801032F122F198202C021E00E
:103190002983342F252F4817590714F4382F292F46
:1031A000832F922F081719070CF4C801BC01641B68
:1031B000750B80E090E04E835F830E94A3386A83A2
:1031C0007B838C839D834E815F81B801641B750B6B
:1031D00080E090E00E94A3389B01AC016A817B8172
:1031E0008C819D810E940A3820E030E048EC52E456
:1031F0000E94BE390E947238653671052CF477FF43
:1032000005C060E070E002C064E670E039813323FD
:1032100031F084E690E0FC01E61BF70BBF017093F0
:1032200096036093950304C090939603809395034F
:1032300080917D04811104C08091410380FD05C00F
:1032400080913D03882309F492C0B10181E194E0AB
:103250000E94A40E80914403882391F02091BB0327
:103260003091BC034091BD035091BE03C501B40130
:103270000E94BE39AB01BC018AE694E00E94E617C9
:103280006091DE037091DF038091E0039091E10390
:103290000E94A538AB01BC0182E193E00E94D114E9
:1032A0004091C5035091C6036091C7037091C80354
:1032B0008EE093E00E94D1144091BB035091BC0377
:1032C0006091BD037091BE038AE093E00E94D11427
:1032D0004091CD035091CE036091CF037091D00304
:1032E00086E093E00E94D1144091C1035091C20343
:1032F0006091C3037091C40382E093E00E94D114F3
:10330000409128045091290460912A0470912B0463
:1033100082EF92E00E94D114B701A6018EEF92E0F5
:103320000E94D114B301A2018AEF92E00E94D1144D
:10333000B301A201705886EF92E027960FB6F89479
:10334000DEBF0FBECDBFDF91CF911F910F91FF90D8
:10335000EF90DF90CF90BF90AF909F908F907F9035
:103360006F905F904F903F902F900C94D1142796C0
:103370000FB6F894DEBF0FBECDBFDF91CF911F9186
:103380000F91FF90EF90DF90CF90BF90AF909F9004
:103390008F907F906F905F904F903F902F90089507
:1033A000CF93DF93EC01CB01BA010E94A53820E84E
:1033B00036E948E15BE40E940A38688379838A83AE
:1033C0009B83DF91CF9108950E94C9346093AE032F
:1033D0007093AF038093B0039093B1038091B403D3
:1033E0009091B5039093B3038093B20381E08093EF
:1033F00036038093380308958AEA90E00C943235BE
:103400000E94AE30811102C00C94FC190895CF9334
:10341000282F80912603882309F445C0E091BE043B
:10342000F0E0EE0FFF1FE15CFB4F80819181CFB791
:10343000222309F0F8942091C5042130B9F018F046
:103440002230F1F02FC0E0912403F0912503208178
:1034500030912603232B20830E943235E0912403F0
:10346000F091250390818091260319C020912603B5
:10347000E0912403F09125038D3D954074F009C03F
:1034800020912603E0912403F09125038C3D954083
:1034900024F49081922B908305C09081822F809597
:1034A00089238083CFBFCF910895FF920F931F93FD
:1034B000CF93DF9300D000D000D0CDB7DEB700E5CA
:1034C00014E0FF24F394F80131968491609177041D
:1034D000662339F0880F880F0E948C3A811101C051
:1034E00081E0F80124913091AB0390E09A838983C5
:1034F0003B831C822D83FE8224E946E0BE016F5F80
:103500007F4F82E40E94C50C0E5F1F4FF4E00C3524
:103510001F07C9F626960FB6F894DEBF0FBECDBFC3
:10352000DF91CF911F910F91FF900895CF93DF937B
:10353000CDB7DEB729970FB6F894DEBF0FBECDBF6B
:1035400019821A821B821C821D821E821F8218868B
:1035500083E0898722E349E0BE016F5F7F4F80E00F
:103560000E94C50C29960FB6F894DEBF0FBECDBFE2
:10357000DF91CF9108952F923F924F925F926F9279
:103580007F928F929F92AF92BF92CF92DF92EF92F3
:10359000FF920F931F93CF93DF931F92CDB7DEB7A8
:1035A00008E010E0B7E02B2E312C86E0482E512C9D
:1035B00095E0692E712C24E0C22ED12C32E0A32E8E
:1035C000B12C88248A94982C0E94AE30882309F468
:1035D0004AC10E94BD30782F1092A2012091A5010E
:1035E0003091A6012B30310508F0BFC0F901EC5C29
:1035F000FF4F0C940F3B1092AD011092AC017E3F37
:1036000019F081E090E084C0B092A601A092A501DB
:103610001092BB019092B9018092B801A6C080932C
:10362000BB011092A701682F88EB91E00E94DA0697
:10363000D092A601C092A50198C08093BC01682FCA
:1036400088EB91E00E94DA06E3E0F0E0F093A60157
:10365000E093A5018AC08093BD01682F88EB91E0BB
:103660000E94DA067092A6016092A5017EC0809346
:10367000BE01682F88EB91E00E94DA065092A60105
:103680004092A50172C08093BF01682F88EB91E042
:103690000E94DA068091BB018823D1F03092A60106
:1036A0002092A50162C0E091A70181E08E0F809376
:1036B000A701F0E0E054FE4F7083672F88EB91E0A4
:1036C0000E94DA069091A7018091BB0198134DC02A
:1036D0001093A6010093A50148C0E091BF01F0E05E
:1036E000E85BFC4F649188EB91E079830E94DA06F5
:1036F0007981872F90E02091B8013091B90133276B
:103700008217930751F07E3F09F47ECF8AE090E064
:103710009093A6018093A50128C0E9E0F0E0F09322
:10372000A601E093A501E091A701F0E0E054FE4F6F
:103730001BC0482F50E0E090B901F12C4E155F05F9
:1037400009F05DCF2A30310509F459CFF1E0F0934B
:10375000A20181E090E09093A6018093A501E09101
:10376000A701F0E0EF53FE4F70832091A2012223C6
:1037700099F08091BC018093A8018091AA01909159
:10378000AB01009721F41092AD011092AC010196AB
:103790009093AB018093AA011092A401222309F413
:1037A00088C40E94E4198091BF01833809F04CC09D
:1037B0009091BD018091A803981346C08091BE01ED
:1037C000843609F041C08091C0019091C1012091DF
:1037D000A6033091A70382179307B1F19093A70333
:1037E0008093A6038091C2018E3E71F58091C30142
:1037F0008F3451F58091C401833531F58091C50135
:10380000843411F58091C601823699F08737E1F44E
:103810006091C7014091C80150E090E8699FB001F4
:10382000112489EC91E00E94950781E080934A037E
:103830000BC08091C801811107C080914A03882381
:1038400019F0EE27FF2709948091BF01882309F41E
:1038500019C12091AB03222341F09091BD0129179A
:1038600021F0933311F080E028C48E3309F488C22C
:1038700008F081C08D3109F432C3A0F4823009F41C
:1038800070C320F4813009F451C116C4883109F4A1
:103890007BC18B3109F010C4809176048F5F8093D7
:1038A00076040AC4833209F4D5C208F059C08E31B7
:1038B00009F429C2813209F0FFC36091D0017091EF
:1038C000D1018091D2019091D30128EE33E040E004
:1038D00050E00E94F03ACA01B9010E94A5386093F5
:1038E0004F0470935004809351049093520460915C
:1038F000D6017091D701882777FD8095982F0E9477
:10390000A5386B017C016091D4017091D5018827A5
:1039100077FD8095982F0E94A5389B01AC010E94ED
:10392000BE394B015C01A7019601C701B6010E9497
:10393000BE399B01AC01C501B4010E943D370E9414
:10394000253A20E030E048EC52E40E940A386093C7
:10395000B7037093B8038093B9039093BA03ACC3D1
:10396000843209F485C38A3209F0A6C38091C0016C
:1039700080935B04A1C3823A09F4E4C208F052C008
:103980008A3409F466C108F046C0813409F094C352
:103990008091C4019091C5019093380480933704BD
:1039A0008091C6019091C70190933A0480933904A5
:1039B0008091C8019091C90190933C0480933B048D
:1039C0008091CA019091CB0190933E0480933D0475
:1039D0008091CC019091CD019093400480933F045D
:1039E0008091CE019091CF01909342048093410445
:1039F0008091D0019091D10190934404809343042D
:103A00008091D2019091D301909346048093450414
:103A10008091E90161C28D3609F499C2893809F4AF
:103A20005EC24AC3853B09F4A2C028F5863A09F470
:103A30008EC2883A09F040C36091C0017091C10103
:103A40008091C2019091C3010E9472387093C003AB
:103A50006093BF038091C4019091C501A091C601FC
:103A6000B091C7018093C1039093C203A093C30395
:103A7000B093C40321C3813F09F4B1C28D3F09F45F
:103A800037C21AC38091C401863049F48091BD01C8
:103A90008093A8031092A7031092A6030DC385304C
:103AA00009F40AC38A3109F407C38091C5018093E0
:103AB000AA038091C60187FB882780F980933D0384
:103AC0008091C001809321048091BD018093AB035C
:103AD00080915A03811121C080917604882391F04E
:103AE00080914F038A3020F48F5F80934F0319C079
:103AF00010924D03809177048F3798F4880F80934C
:103B000077040FC080914E038A3020F48F5F80933A
:103B10004E0307C010924D0304C010924F03109241
:103B20004E0310925A0310927604C6C22091790473
:103B300024FD12C08091CE019091CF019093340466
:103B4000809333048091DE0187FF04C081958093C8
:103B50002C0402C080932E0426FDAEC28091D001B9
:103B60009091D1019093300480932F04A5C280914D
:103B7000790485FDA1C28091C0019091C10190930B
:103B800032048093310498C24091C8015091C90118
:103B90006091CA017091CB0184EF93E00E94D0192B
:103BA0004091CC015091CD016091CE017091CF0137
:103BB00088EF93E00E94D0198091DC018093F2039A
:103BC0009091DD019093F303882389F08091D001D7
:103BD0009091D101A091D201B091D3018093FC03C7
:103BE0009093FD03A093FE03B093FF0318C020E061
:103BF00030E04AE754E46091CD037091CE038091A8
:103C0000CF039091D0030E94BE390E947238609316
:103C1000FC037093FD038093FE039093FF03809158
:103C2000DA019091DB019093F1038093F00380918E
:103C3000D4019091D50190934804809347048091DA
:103C40005A038F5F80935A0310924E0310924F03D2
:103C500033C28091C0019091C101A091C201B09185
:103C6000C3018093C5039093C603A093C703B09389
:103C7000C8038091F203882349F08091C401909198
:103C8000C501A091C601B091C70108C08091B703DA
:103C90009091B803A091B903B091BA038093BB038C
:103CA0009093BC03A093BD03B093BE038091D00159
:103CB0009091D1019093D2038093D1038091D2014E
:103CC0008093B6038091C8019091C901A091CA0167
:103CD000B091CB018093CD039093CE03A093CF03FB
:103CE000B093D0038091CC019091CD01A091CE01F1
:103CF000B091CF018093000490930104A09302043B
:103D0000B0930304D9C121EE3EE245E652E460914E
:103D1000C8017091C9018091CA019091CB010E94A4
:103D2000BE390E9472387093D4036093D30321EE9E
:103D30003EE245E652E46091C4017091C501809174
:103D4000C6019091C7010E94BE390E9472387093DB
:103D5000D6036093D50321EE3EE245E652E460913E
:103D6000CC017091CD018091CE019091CF010E9444
:103D7000BE390E9472387093D8036093D7039CC1F8
:103D80006091C0017091C1018091C2019091C30105
:103D90000E94723870936504609364046091C4015A
:103DA0007091C5018091C6019091C7010E9472383F
:103DB00070936304609362048091D4019091D50163
:103DC00090936104809360048091C8019091C9012F
:103DD000A091CA01B091CB018093570490935804ED
:103DE000A0935904B0935A048091CC019091CD01D5
:103DF000A091CE01B091CF018093530490935404CD
:103E0000A0935504B09356048091D6019091D701A8
:103E100090935F0480935E048091D8019091D901C2
:103E200090935D0480935C046091D0017091D10106
:103E30008091D2019091D3010E94723870934A040C
:103E40006093490480915A038F5F80935A031092C4
:103E50004E0332C18091C4019091C5019093380402
:103E6000809337048091C6019091C70190933A04E2
:103E7000809339048091C8019091C90190933C04CA
:103E800080933B048091CA019091CB0190933E04B2
:103E900080933D048091CC019091CD01909340049A
:103EA00080933F048091CE019091CF019093420482
:103EB000809341048091D0019091D101909344046A
:103EC000809343048091D2019091D3019093460452
:103ED000809345048091D50180939A03EDC0809131
:103EE000CC019091CD019093250480932404E4C0EB
:103EF0008091C00180935C03873008F0DDC082E3CD
:103F0000E1ECF1E0A0E6B3E001900D928A95E1F7D3
:103F100010929203E2E9F3E022E32E1B122F1E0F10
:103F200092919F7DD9F3118286E20E9478070E94C8
:103F30008D0DE82FF0E0E85BFB4F6491812F0E942C
:103F40001311BAC08091C7018093A903B5C09091A5
:103F5000C4018091C501981708F4892F80939903B3
:103F6000ABC02091C0013091C1014091C20150917C
:103F7000C3016091C4017091C501E0E4AE2EF2E48A
:103F8000BF2EAFE0CA2ED12CE12CF12C00E010E0C6
:103F90008091C6019091C7010E94263BB901CA01D8
:103FA00020E831E541E050E00E94CE3A2093EE0255
:103FB0003093EF024093F0025093F1026093EA02D3
:103FC0007093EB028093EC029093ED0281E0232B3F
:103FD000242B252B09F480E0809351036DC0809140
:103FE000C8019091C901A091CA01B091CB01809301
:103FF000DE029093DF02A093E002B093E102809191
:10400000CC019091CD01A091CE01B091CF018093D0
:10401000E2029093E302A093E402B093E502809160
:10402000D0019091D101A091D201B091D3018093A0
:10403000E6029093E702A093E802B093E902809130
:10404000D4019091D5019093D9028093D8028091A8
:10405000D8019091D9019093DB028093DA0280918C
:10406000DC019091DD019093DD028093DC0224C09D
:104070008091C4019091C5019093D1028093D002A8
:104080008091C6019091C7019093D3028093D20290
:104090008091C8019091C9019093D5028093D40278
:1040A0008091CA019091CB019093D7028093D60260
:1040B00003C00E94001A88CA81E00F90DF91CF915F
:1040C0001F910F91FF90EF90DF90CF90BF90AF9036
:1040D0009F908F907F906F905F904F903F902F9028
:1040E000089584E20E94780796FF08C08091DD035E
:1040F00090E08C549F4F0E94241104C08091D10302
:104100009091D203880F991F8D966AE570E00E9406
:10411000BA3A77FF03C0685F7F4FFBCF6830710505
:104120001CF068507109FACFFB01E05CFC4F8491F0
:10413000089587FD04C00E9471200E94632F609142
:10414000D1037091D2038EE898E00E94CA0785E0FF
:104150000C94632F6F927F928F929F92AF92BF9237
:10416000CF92DF92EF92FF920F931F93CF93DF9343
:104170008C0116FD08C0612F81E0800F0E942B2F5B
:1041800014FFD3C019C0C5E082EB0E94632FDDE0AD
:10419000D15019F00E941D09FBCFC33011F485ECFA
:1041A00001C083EB0E94632F0E941A09C15019F3CA
:1041B000C33051F786ECE9CFC091DB03D091DC032B
:1041C000A090D903B090DA03C501B7FE04C08827D8
:1041D00099278A199B096AEF70E00E94BA3A362F34
:1041E000272FCE01D7FF04C0882799278C1B9D0B52
:1041F0006AEF70E00E94BA3ACB01632F722F681702
:1042000079070CF4BC016F5F7F4F7093B501609329
:10421000B401882777FD8095982F0E94A5386B01FF
:104220007C01B501882777FD8095982F0E94A538DD
:104230004B015C012CEB34E743E95CE3C701B601B9
:104240000E940A389B01AC01C501B4010E940A38E2
:104250000E947238762EBE01882777FD8095982FB0
:104260000E94A5384B015C0122E430E645EE5CE398
:10427000C701B6010E940A389B01AC01C501B40117
:104280000E940A3820E030E040E05FE30E943D37C2
:104290000E947238D62E06FD0AC00E94712062E08C
:1042A0006719482F85E08D0D0E94742F3EC09091B4
:1042B0009B03961304C080919C038715E1F0209125
:1042C0009F033091A0033093A2032093A103209178
:1042D0009D0330919E033093A00320939F03209170
:1042E0009B0330919C0330939E0320939D03D092B7
:1042F0009B0370929C0372EAE72E73E0F72EC1EAEB
:10430000D3E0E2E0CE2EF70180816C2D681B88811E
:1043100044E28B5F0E94742FF2E0EF1AF1082297BB
:1043200043E0CB39D40779F7B8CF07FD08C062E086
:1043300085E00E943D2F8DEE91E00E943D1115FF1A
:10434000CFC080913D03882309F4CAC080917D04C9
:10435000811184C06091DE037091DF038091E003DE
:104360009091E1030E94A5389B01AC0160914F043C
:104370007091500480915104909152040E94B03782
:1043800021EE3EE245E652E40E94BE399B01AC01BB
:104390000E943D370E9472386A5071092DE2269FB3
:1043A000C001279F900D11246AE070E00E94BA3A84
:1043B000CB018D9697FD01969595879569E070E004
:1043C0000E94BA3AD62F653058F4CFECC81B4C2F58
:1043D0008CE00E94742F4C2F6D2F81E00E94742F6F
:1043E0008091DD0390E020911B0130911C01821B24
:1043F000930B0E942411853B910534F028E631E0AF
:10440000F901E81BF90BCF019C01245B310948E459
:10441000429FC001439F900D11246AE070E00E940A
:10442000BA3ACB01849666E070E00E94BA3A67FD22
:1044300007C06D3044F4DFEBD80FC1E0C60F05C0F4
:10444000C1E0DCE302C0CCE0DEE34D2F64E08C2F62
:104450000E94742F4D2F60E08C2F32C0C090CD038E
:10446000D090CE03E090CF03F090D0030E94B30E23
:104470009B01AC01C701B6010E94BE3920E030E0CB
:1044800040EA50E40E943D372DEC3CEC4CE850E40F
:104490000E94BE390E947238862F9FEF960F9B3282
:1044A00038F469E00E94983A4FEC491B682F07C026
:1044B0006C321CF460E04FEC02C064E04EE286E037
:1044C000DF91CF911F910F91FF90EF90DF90CF90F0
:1044D000BF90AF909F908F907F906F900C94742FAF
:1044E000DF91CF911F910F91FF90EF90DF90CF90D0
:1044F000BF90AF909F908F907F906F9008952F9274
:104500003F924F925F926F927F928F929F92AF9263
:10451000BF92CF92DF92EF92FF920F931F93CF93B0
:10452000DF93CDB7DEB727970FB6F894DEBF0FBE87
:10453000CDBF6B017C010E94792E80917D0410918A
:104540003D0381112DC0112389F18091410380FF2A
:104550002DC060914F04709150048091510490914E
:1045600052040E9472386B3071058CF46091BB0369
:104570007091BC038091BD039091BE030E9472387C
:104580006230710524F48091B603823078F0C092D5
:104590004B04D0924C04E0924D04F0924E0406C0BD
:1045A000111104C080913E038111F1CF10933E039D
:1045B0008091C004853018F084E08093C0048EEAB6
:1045C00093E00E943011853C994080F11092BB032A
:1045D0001092BC031092BD031092BE0362E085E00E
:1045E0000E942B2F6091B4037091B5038091B203A8
:1045F0009091B303681B790B8AED91E00E94CA0782
:1046000040915503509156036091570370915803A0
:10461000411551056105710531F02AE030E08CEC5F
:1046200092E00E94183783E094E433C080917A04CA
:1046300080FF36C080913D0381112EC080914B04D4
:1046400090914C04A0914D04B0914E04892B8A2B7B
:104650008B2B11F18BE494E00E943011883B9B403E
:10466000D8F460916A0470916B0480916C0490910D
:104670006D040E9472386630710574F081E0809399
:104680004B030E9409078091A3038093230381E0D9
:1046900091E00E94F20FAEC280914B0381116EC275
:1046A0008091C004811103C00CE514E012C0909108
:1046B000A303981718F5F8CF8B2D8F770E947807F2
:1046C0006C010E94C707D7FE0DC0B7FC13C00C5F7A
:1046D0001F4FF801B4903196E590F490E114F10485
:1046E00059F788C2C7FC06C0F8013396849181113E
:1046F0000E94632FC601F7010995E9CF80913D0320
:10470000811133C219821A821B821C82A0901A0363
:10471000F5E0AF9E50011124C501845E9A4F5C0103
:10472000FC01859194919093190380931803F501EE
:10473000329664900E940907812C912C712C412C97
:10474000512C1D821E82312C761409F4ADC0222416
:104750002394270C0091180310911903080D191DBB
:10476000F801E590F490622D81E00E942B2FC701A3
:104770000E943D11622D83E10E942B2F8091160132
:10478000781203C08EE30E94632FF8013296E49101
:10479000EF77E236C1F040F4E23419F1EA3509F47A
:1047A0003CC0E1115EC07BC0E63609F44DC018F490
:1047B000E336A9F156C0E83641F0EA3709F051C0B6
:1047C00060E1362E2CC021E00DC08091A906803416
:1047D00019F483E791E002C08BE691E00E943D115D
:1047E0005EC02AE0F8013396A591B4916C9170E017
:1047F00080E090E02F830E94A5386B017C012F811F
:10480000622F70E080E090E00E94A3389B01AC0131
:10481000C701B6010E940A3812C070E2372EF801B3
:104820003396A591B4916C91772767FD70956319C4
:104830007109882777FD8095982F0E94A538698394
:104840007A838B839C830DC0F8013396A591B49134
:104850008D919D910D90BC91A02D89839A83AB83FE
:10486000BC8380911601B981AA813B812C81781289
:1048700004C04B2E5A2E3D832E83F8013596E491C9
:10488000E295EF70F0E0EE0FFF1FEF56FA4F8591C3
:1048900094914B2F5A2F632F722F0E94B00896E0ED
:1048A000890E911C722C50CFE3E0AE0EB11CF501C5
:1048B00085919491009711F0FC0109958091450331
:1048C000882309F497C11092450311E01093360331
:1048D00081E00E941E078739910514F081E004C031
:1048E0008A369F4F24F48FEF0E942E0783C183E006
:1048F0000E941E07873991055CF010931601809184
:104900001A03813019F410921A0374C18F5F0DC01D
:104910008A369F4F6CF41093160180911A0381110F
:1049200003C010931A0366C1815080931A0362C1B9
:10493000609116016F5F84E10E942B2F8091160118
:10494000C0901803D090190396E0899FC00CD11C29
:10495000112480E00E941E075C0197FF06C0B194FD
:10496000A194B1083324339401C0312CF60133965D
:10497000E590F490F60132962490C201AD81BE819B
:1049800089839A83AB83BC83122D1F77143640F43E
:10499000123670F4123471F01A3509F049C008C0AB
:1049A000133751F11A3721F0163609F041C024C0EF
:1049B00001E001C00AE0EDE2AE16E1E0BE063CF423
:1049C000612C712C40E8842E4FE3942E06C0612C9C
:1049D000712C30E2832E31E4932E602F70E080E062
:1049E00090E00E94A5389B01AC01C401B3010E9474
:1049F0000A386624639421C0C50164E670E00E9411
:104A0000BA3A660F771F6F597E4FFB016081718143
:104A100080E090E00E94A3389B01AC0160E070E070
:104A200080E89FE30E940A3801E024E0622E05C07E
:104A300060E070E080E89FE301E0F5E6AF16B104C6
:104A40000CF44CC031109058AB01BC01CE01019662
:104A50000E94E617F601359684918F70C82ED12CEE
:104A6000F601EE0FFF1FEE0FFF1FE956FA4F65919B
:104A70007491882777FD8095982F0E94A5384B0167
:104A80005C019B01AC0169817A818B819C810E94D0
:104A90000338F601EE0FFF1FEE0FFF1F87FF04C064
:104AA00089829A82AB82BC82E756FA4F65917491F3
:104AB000882777FD8095982F0E94A5384B015C01CF
:104AC0009B01AC0169817A818B819C810E94B33901
:104AD000181624F489829A82AB82BC8289809A80DB
:104AE000AB80BC8092014D815E81C501B4010E9402
:104AF0000338882309F47EC0602F70E080E090E0E6
:104B00000E94A5389B01AC01C501B4010E94BE39C9
:104B10000E9472381236A1F030F4123489F01A353E
:104B2000B9F480E209C0163671F01A3721F0133655
:104B300079F480E001C080E1860FF701808308C02E
:104B4000F701608305C0F70180829182A282B3825F
:104B5000462D50E0B70169577240C7010E94950782
:104B600027FE48C00E94BB2E45C083E093E00E9410
:104B7000C70783E093E00E94AE123CC080912303FC
:104B80009091A303891721F08093A30310924B0304
:104B900082E00E941E07AA2797FDA095BA2FB7FFB3
:104BA00007C0B095A095909581959F4FAF4FBF4F8F
:104BB0008D329140A105B105D4F483E00E941E0717
:104BC000AA2797FDA095BA2FB7FF07C0B095A0956B
:104BD000909581959F4FAF4FBF4F8D329140A1056A
:104BE000B1052CF480913D03882309F450CD109237
:104BF0004B034DCD27960FB6F894DEBF0FBECDBF49
:104C0000DF91CF911F910F91FF90EF90DF90CF90A8
:104C1000BF90AF909F908F907F906F905F904F90DC
:104C20003F902F90089566E970E080E090E00C944A
:104C3000F8341F920F920FB60F9211242F933F93C7
:104C40004F935F936F937F938F939F93AF93BF9394
:104C5000EF93FF9381E08093AE0110923503809132
:104C600034038F5F809334030E94C9346093300310
:104C700070933103809332039093330380915903EF
:104C8000882321F00E94832F10925903FF91EF9106
:104C9000BF91AF919F918F917F916F915F914F9154
:104CA0003F912F910F900FBE0F901F901895CF92AC
:104CB000DF92EF92FF920E94D5346B017C0183E07A
:104CC0000E943036019749F4C0922703D0922803FE
:104CD000E0922903F0922A031FC08091270390914C
:104CE0002803A0912903B0912A030097A105B105DB
:104CF00099F0C81AD90AEA0AFB0AD0922C03C0928A
:104D00002B0310922703109228031092290310926C
:104D10002A0381E080932D03FF90EF90DF90CF90E6
:104D200008951F920F920FB60F9211242F933F9365
:104D30004F935F936F937F938F939F93AF93BF93A3
:104D4000EF93FF930E945726FF91EF91BF91AF9190
:104D50009F918F917F916F915F914F913F912F9193
:104D60000F900FBE0F901F90189565E082E00E9493
:104D70002B2F8BE391E00E943D110E94C9344AE041
:104D800050E08CEC92E00E942537809150038823FC
:104D900059F061E081E00E942B2F6091930470E054
:104DA0008EE191E00E94CA070E94832F0C94132683
:104DB000CF9388E10FB6F894809360001092600062
:104DC0000FBE60E071EE80E090E00E946E304EE435
:104DD00050E060E072E089E794E00E945A07809119
:104DE000790481FF03C08CE998E002C08FEA98E063
:104DF0009093360480933504809193048F3421F48A
:104E0000809194048A3119F081E08093500384B535
:104E10008C7F84BD83E00E94783580917A008B7FFF
:104E200080937A0080917A00866080937A008091E6
:104E300069008C7F826080936900E89A80917E048B
:104E4000813059F462E083E00E94C13580916900AD
:104E5000837F846080936900E99A88EC92E0909364
:104E6000B7018093B6015E9A0E94832F7894809157
:104E70009504893341F480919604823321F4809122
:104E80009704803389F089E38093950482E38093CB
:104E9000960480E38093970443E050E06CE172E075
:104EA00085E994E00E9495078091BE04882339F13A
:104EB000E091BF04EE2319F1F0E0E75EFE4FC491EC
:104EC0002C2F30E0F901E051F64F8491F901E452C2
:104ED000F64F249120932603E82FF0E0EE0FFF1FFA
:104EE000E25FF54F259134913093250320932403FD
:104EF00080E00E94071A61E08C2F0E94C1350E9459
:104F0000062F0E94B5260E94EE136DE071E088EC3A
:104F100092E0CF910C941A30E0910901EF5FE09399
:104F20000901E770F0E0EE0FFF1FEE57FE4F91838F
:104F3000808328E060E070E02150E22FF0E0EE0F87
:104F4000FF1FEE57FE4F80819181680F791F21115D
:104F5000F3CF80E090E00E94A33820E030E040E012
:104F60005EE30E94BE39089597FD05C08F3F91050D
:104F700009F01CF4089580E008958FEF0895CF9311
:104F80008091790484FF85C0C0910801CF5FC093F0
:104F9000080180E10E947B35C770EC2FF0E0EE0F36
:104FA000FF1FEE58FE4F9183808328E060E070E0A1
:104FB0002150E22FF0E0EE0FFF1FEE58FE4F8081F0
:104FC0009181680F791F2111F3CF8091790484FFBB
:104FD00060C080E090E00E94A33820919B04309153
:104FE0009C0440919D0450919E040E94BE3929E585
:104FF0003EEE49E050E40E94BE390E94773840916D
:105000003304509134044115510529F4709334044C
:105010006093330411C09A01220F331F240F351FF0
:105020002E5F3F4F260F371F3695279536952795CC
:10503000309334042093330481E08093360330911D
:105040008204832F61E20E948C3AE82F809133041E
:1050500090913404C29664E670E00E94A63A432F11
:1050600050E0641B750B9B01AFEFB0E00E94153B55
:10507000FAE2EF9F90011124241B350B442737FDE2
:105080004095542F0E94F03AC9010E94B4278093A2
:105090002E048091790485FF87C080915203882374
:1050A00009F482C0C0910701CF5FC09307018EE071
:1050B0000E947B35C770EC2FF0E0EE0FFF1FEE591A
:1050C000FE4F9183808328E060E070E02150E22F62
:1050D000F0E0EE0FFF1FEE59FE4F80819181680FC7
:1050E000791F2111F3CF8091790485FF5DC080E0A5
:1050F00090E00E94A33820919F043091A004409139
:10510000A1045091A2040E94BE3929EA3CEC48E077
:1051100050E40E94BE390E9477384091310450918A
:1051200032044115510529F470933204609331041F
:1051300011C09A01220F331F240F351F2E5F3F4FDE
:10514000260F371F369527953695279530933204CD
:10515000209331043091BB04832F61E20E948C3A8A
:10516000E82F8091310490913204C29664E670E099
:105170000E94A63A432F50E0641B750B9B01AFEFD2
:10518000B0E00E94153BFAE2EF9F90011124241B2E
:10519000350B442737FD4095542F0E94F03AC90142
:1051A0000E94B42780932D048091790486FF57C014
:1051B0008FE00E947B35E0910601EF5FE0930601EE
:1051C000E770F0E0EE0FFF1FEE5AFE4F91838083F1
:1051D00028E060E070E02150E22FF0E0EE0FFF1FCA
:1051E000EE5AFE4F80819181680F791F2111F3CF14
:1051F0008091790486FF33C080E090E00E94A3385C
:105200002091A3043091A4044091A5045091A604D8
:105210000E94BE392DE032E348EC5CE30E94BE39C7
:105220000E94773840912F04509130044115510568
:1052300029F47093300460932F0411C09A01220F57
:10524000331F240F351F2E5F3F4F260F371F369514
:105250002795369527953093300420932F0480911D
:1052600087048695813041F050F1823049F08330D7
:1052700051F58091990325C081E10E947B3509C0D9
:1052800020E23EE440E050E061E081E10E945936D6
:10529000CB010E948C272091A7043091A804409153
:1052A000A9045091AA040E94BE390E9477387093D5
:1052B00098036093970381E08093360310C0809138
:1052C0009A0390E004C080914504909146040E94A6
:1052D0008C270E9477387093980360939703CF913F
:1052E000089581E00C94071A8CEC92E00E94402E05
:1052F00088EC92E00C9466304F925F926F927F92AE
:105300008F929F92AF92BF92CF92DF92EF92FF92D5
:105310000F931F93CF93DF9300D000D0CDB7DEB7AC
:10532000A89578940E94C9346B017C0128EE33E083
:1053300040E050E00E94CE3A3093B5032093B4038E
:105340002CEDC21625E0D206E104F10428F080918C
:105350005003882309F4A2C00E94AE30882309F4C8
:1053600087C00E94BD308A3031F4809194038F5FF2
:105370008093940302C0109294038091940384302C
:1053800058F38CB583608CBD0E94DB0A65E085E034
:105390000E942B2F87EF90E00E943D110E94832FE7
:1053A00000E0C12CD12CA12CB12CF12CE12C0E94BD
:1053B000AE308823E1F30E94BD30182F823338F4D9
:1053C0008033F0F48A3049F08D3051F022C08237BA
:1053D00001F551E0A51AB1081CC03DE0C31649F122
:1053E000D11003C00E94DB0A24C048E0F41210C0B0
:1053F000EE2DF0E0E854FE4F0083E39400E008C097
:10540000000F813309F40F5FF394DD24D39401C0BE
:10541000F12C80E4E8120DC068EB71E0C5010E9438
:10542000AA2FEFEFAE1ABE0A8AE091E00E94D60AD8
:10543000E12CFFEFAF16B10409F014F4C12EB7CF81
:1054400087E091E00F900F900F900F90DF91CF9138
:105450001F910F91FF90EF90DF90CF90BF90AF9092
:105460009F908F907F906F905F904F900C94D60A92
:105470000F900F900F900F90DF91CF911F910F9190
:10548000FF90EF90DF90CF90BF90AF909F908F9064
:105490007F906F905F904F900C94B5268091AB03F6
:1054A000882399F080914D0381110FC00E94551AF5
:1054B0000E9413260E94551A0E9413260E94551A14
:1054C0000E94132681E080934D0328EB422E21E0B9
:1054D000522E00E47724739480913803811108C020
:1054E00080913903811104C080914203882361F0C7
:1054F0000E94BB1A80913803809339038091360350
:10550000882309F48FC172C0F201202F11922A95CD
:10551000E9F70E94AB300E94C9344B015C0134E6CC
:10552000830E911CA11CB11C9AEF692E1FEF0E94E3
:10553000C93486169706A806B906A8F024EC39E007
:1055400040E050E060E080E00E9459366F3F710516
:105550008105910509F02CF4662319F0611708F410
:10556000162F6A9421F71F3F19F410910E0102C003
:1055700010930E011B3068F0133170F01D3178F07C
:10558000183280F01C3388F0163990F422E080E263
:1055900011C028E182E00EC02CE084E00BC028E0BE
:1055A00086E008C026E088E005C024E080E102C073
:1055B00021E080E48093770430E0A0ECB2E10E9427
:1055C000153B4B015C016093550370935603809328
:1055D00057039093580388EC92E00E945D30C50118
:1055E000B4010E946E307092390376CF1091A303FC
:1055F00040917E04433008F40AC1433029F480917D
:105600002B0390912C0311C08BEF840F843048F44E
:10561000E42FF0E0EE0FFF1FEB5CFB4F80819181E8
:1056200004C080914504909146049C01205233406F
:105630002939384008F0EBC020910C0130910D0160
:105640008217930720F490930D0180930C01209111
:105650000A0130910B012817390720F490930B01B0
:1056600080930A01443049F5809121049AEF980F04
:10567000923008F49DC090910C04981789F08093A3
:105680000C0460E070E088E094E00E948F0E90913E
:105690000C0480911701981303C081E080933A03B2
:1056A00088E094E00E943011813D974008F480C06A
:1056B00080912104809317017BC0209183042111E4
:1056C00021C040910A0150910B0120910C013091B1
:1056D0000D016091C0042817390768F4FC01E21B32
:1056E000F30BCA01821B930B70E00E94A63ACF0114
:1056F0000E94A63A01C060E0161709F459C06093F1
:10570000A30356C06091790462FF15C0209116036F
:10571000309117032115310541F0AC01421B530BA9
:105720009A0141E0293C310508F440E090931703C9
:105730008093160311C020910A0130910B01409112
:105740000C0150910D01240F351F3695279541E02E
:105750002817390708F040E060FF10C0442321F00B
:1057600081E080933B0324C080913B03882319F0A0
:1057700081E080933A0310923B031AC04423C1F0A6
:105780008090080490900904A0900A04B0900B0443
:105790000E94C93486169706A806B90648F481E027
:1057A00080933A0364EF71E088E094E00E948F0EEA
:1057B00080913A03882369F010923A038091A30301
:1057C0008F5F8093A3039091C004981710F41092F8
:1057D000A3030091A3031017D1F00E94EE13809150
:1057E0004C03811112C0A0E6B3E0EAEEF0E0849130
:1057F0008D9331968111FBCF80916703800F809349
:10580000670363E088E00E94131110924C038091BB
:105810003703811105C081E08093370380933503FE
:105820001092360380913703882309F451C0809188
:10583000350381114DC0109237038091210490915E
:105840001801891789F0809318018111E2C0A0E640
:10585000B3E0EAEDF0E084918D9331968111FBCFB6
:1058600066E08FE00E9413112091F203222319F0C9
:1058700081E08093480380917D04882309F4DAC095
:1058800090913D0380913F03992309F4A5C180FDC8
:105890000DC010924403816080933F031092110465
:1058A0001092120410921304109214048091440375
:1058B000882309F4D5C0809144038111F1C00E946E
:1058C000F817C701B6010E947F2281E08093590337
:1058D00080911D0490911E04A0911F04B09120049A
:1058E0008C159D05AE05BF05B8F464E170E08DE14F
:1058F00094E00E94A40E0E9471298091590388238C
:1059000059F080913503882339F080E393E00E94B9
:105910003011C39708F06DC18091190490911A0459
:10592000A0911B04B0911C048C159D05AE05BF050C
:1059300030F564E670E089E194E00E94A40E0E94D4
:10594000BF278091460391E08927809346038823EF
:10595000B1F080915403882369F08F5F80935403E2
:10596000833068F08091A4038F5F8093A40310922A
:10597000540305C08091A4038F5F8093A40380919A
:10598000150490911604A0911704B09118048C1579
:105990009D05AE05BF0508F057C164EF71E085E1D4
:1059A00094E00E94A40E81E0809336038093450327
:1059B0009091A5039F5F9093A50390914203982730
:1059C00090934203992309F43FC180933C03809153
:1059D0005103882399F08091EA029091EB02A09103
:1059E000EC02B091ED020196A11DB11D8093EA0277
:1059F0009093EB02A093EC02B093ED028091AE0184
:105A0000882309F4FDC080913403853008F412C165
:105A1000F7C0863009F41BCF893009F418CFA0E60F
:105A2000B3E0EAECF0E084918D9331968111FBCFE5
:105A300063E017CF8091B603833308F421CF8091C0
:105A40001B0190911C0180379E4F09F019CF809166
:105A5000D1039091D20390931C0180931B0110CF2E
:105A6000233008F428CF8CE0E4EFF3E0A2EEB3E0BB
:105A700001900D928A95E1F781E080934403809133
:105A8000CD039091CE03A091CF03B091D00380932A
:105A9000C9039093CA03A093CB03B093CC030BCF5D
:105AA0008090E2039090E303A090E403B090E503BC
:105AB00020E030E0A901C501B4010E94B33925E31B
:105AC0003AEF4EE85CE318161CF4C501B40103C0BC
:105AD000C501B40190580E94BE390E9407382B01BD
